:02000002B0004C
:1040000000400B0096A50B00000006000C00050206
:084010000401B41400000000DB
:04401800A08F0B006A
:1040200081F0004102E000BF83F0004330B54FEA69
:1040300041044FEA430594EA050F08BF90EA020FD6
:104040001FBF54EA000C55EA020C7FEA645C7FEA69
:10405000655C00F0E2804FEA5454D4EB5555B8BF8C
:104060006D420CDD2C4480EA020281EA030382EAFD
:10407000000083EA010180EA020281EA0303362D8F
:1040800088BF30BD11F0004F4FEA01314FF4801C62
:104090004CEA113102D0404261EB410113F0004F74
:1040A0004FEA03334CEA133302D0524263EB43032B
:1040B00094EA050F00F0A780A4F10104D5F1200EC9
:1040C0000DDB02FA0EFC22FA05F2801841F1000124
:1040D00003FA0EF2801843FA05F359410EE0A5F1F8
:1040E00020050EF1200E012A03FA0EFC28BF4CF029
:1040F000020C43FA05F3C01851EBE37101F00045DF
:1041000007D54FF0000EDCF1000C7EEB00006EEBEB
:104110000101B1F5801F1BD3B1F5001F0CD3490875
:104120005FEA30004FEA3C0C04F101044FEA4452CC
:1041300012F5800F80F09A80BCF1004F08BF5FEA53
:10414000500C50F1000041EB045141EA050130BD33
:104150005FEA4C0C404141EB0101013C28BFB1F545
:10416000801FE9D291F0000F04BF01460020B1FA90
:1041700081F308BF2033A3F10B03B3F120020CDA63
:104180000C3208DD02F1140CC2F10C0201FA0CF041
:1041900021FA02F10CE002F11402D8BFC2F1200CA6
:1041A00001FA02F120FA0CFCDCBF41EA0C0190405C
:1041B000E41AA2BF01EB0451294330BD6FEA0404A5
:1041C0001F3C1CDA0C340EDC04F11404C4F1200290
:1041D00020FA04F001FA02F340EA030021FA04F3A2
:1041E00045EA030130BDC4F10C04C4F1200220FAF9
:1041F00002F001FA04F340EA0300294630BD21FA37
:1042000004F0294630BD94F0000F83F4801306BFFC
:1042100081F480110134013D4EE77FEA645C18BFF0
:104220007FEA655C29D094EA050F08BF90EA020F87
:1042300005D054EA000C04BF1946104630BD91EA7F
:10424000030F1EBF0021002030BD5FEA545C05D182
:104250004000494128BF41F0004130BD14F58004C1
:104260003CBF01F5801130BD01F0004545F0FE4135
:1042700041F470014FF0000030BD7FEA645C1ABF6A
:10428000194610467FEA655C1CBF0B46024650EAA1
:10429000013406BF52EA033591EA030F41F40021CD
:1042A00030BD00BF90F0000F04BF0021704730B553
:1042B0004FF4806404F132044FF000054FF0000128
:1042C00050E700BF90F0000F04BF0021704730B5E9
:1042D0004FF4806404F1320410F0004548BF4042BE
:1042E0004FF000013EE700BF42004FEAE2014FEA13
:1042F00031014FEA02701FBF12F07F4393F07F4FEE
:1043000081F06051704732F07F4208BF704793F0F0
:104310007F4F04BF41F40021704730B54FF4607403
:1043200001F0004521F000411CE700BF50EA010206
:1043300008BF704730B54FF000050AE050EA0102AF
:1043400008BF704730B511F0004502D5404261EB1F
:1043500041014FF4806404F132045FEA915C3FF460
:10436000D8AE4FF003025FEADC0C18BF03325FEAFD
:10437000DC0C18BF033202EBDC02C2F1200300FAAE
:1043800003FC20FA02F001FA03FE40EA0E0021FAD3
:1043900002F11444BDE600BF70B54FF0FF0C4CF4C1
:1043A000E06C1CEA11541DBF1CEA135594EA0C0F73
:1043B00095EA0C0F00F0DEF82C4481EA030621EAAE
:1043C0004C5123EA4C5350EA013518BF52EA0335E9
:1043D00041F4801143F4801338D0A0FB02CE4FF09B
:1043E0000005E1FB02E506F00042E0FB03E54FF0CB
:1043F0000006E1FB03569CF0000F18BF4EF0010EC3
:10440000A4F1FF04B6F5007F64F5407404D25FEABE
:104410004E0E6D4146EB060642EAC62141EA555171
:104420004FEAC52040EA5E504FEACE2EB4F1FD0CB3
:1044300088BFBCF5E06F1ED8BEF1004F08BF5FEA31
:10444000500E50F1000041EB045170BD06F00046E3
:1044500046EA010140EA020081EA0301B4EB5C0490
:10446000C2BFD4EB0C0541EA045170BD41F4801188
:104470004FF0000E013C00F3AB8014F1360FDEBFAD
:10448000002001F0004170BDC4F10004203C35DA89
:104490000C341BDC04F11404C4F1200500FA05F30C
:1044A00020FA04F001FA05F240EA020001F00042AD
:1044B00021F0004110EBD37021FA04F642EB060123
:1044C0005EEA430E08BF20EAD37070BDC4F10C044D
:1044D000C4F1200500FA04F320FA05F001FA04F211
:1044E00040EA020001F0004110EBD37041F10001FD
:1044F0005EEA430E08BF20EAD37070BDC4F1200508
:1045000000FA05F24EEA020E20FA04F301FA05F26F
:1045100043EA020321FA04F001F0004121FA04F217
:1045200020EA020000EBD3705EEA430E08BF20EAE7
:10453000D37070BD94F0000F0FD101F00046400021
:1045400041EB010111F4801F08BF013CF7D041EAA3
:10455000060195F0000F18BF704703F000465200A7
:1045600043EB030313F4801F08BF013DF7D043EA78
:104570000603704794EA0C0F0CEA135518BF95EA2E
:104580000C0F0CD050EA410618BF52EA4306D1D1B5
:1045900081EA030101F000414FF0000070BD50EAD4
:1045A000410606BF1046194652EA430619D094EA5E
:1045B0000C0F02D150EA013613D195EA0C0F05D148
:1045C00052EA03361CBF104619460AD181EA03019C
:1045D00001F0004141F0FE4141F470014FF0000054
:1045E00070BD41F0FE4141F4780170BD70B54FF0EF
:1045F000FF0C4CF4E06C1CEA11541DBF1CEA13556F
:1046000094EA0C0F95EA0C0F00F0A7F8A4EB050450
:1046100081EA030E52EA03354FEA013100F0888047
:104620004FEA03334FF0805545EA131343EA126310
:104630004FEA022245EA111545EA10654FEA0026C5
:104640000EF000419D4208BF964244F1FD0404F57E
:10465000407402D25B084FEA3202B61A65EB0305DA
:104660005B084FEA32024FF480104FF4002CB6EB97
:10467000020E75EB030E22BFB61A754640EA0C0017
:104680005B084FEA3202B6EB020E75EB030E22BF57
:10469000B61A754640EA5C005B084FEA3202B6EB98
:1046A000020E75EB030E22BFB61A754640EA9C0057
:1046B0005B084FEA3202B6EB020E75EB030E22BF27
:1046C000B61A754640EADC0055EA060E18D04FEAE5
:1046D000051545EA16754FEA06164FEAC30343EA85
:1046E00052734FEAC2025FEA1C1CC0D111F4801F52
:1046F0000BD141EA00014FF000004FF0004CB6E74B
:1047000011F4801F04BF01430020B4F1FD0C88BFE9
:10471000BCF5E06F3FF6AFAEB5EB030C04BFB6EBF4
:10472000020C5FEA500C50F1000041EB045170BDE7
:104730000EF0004E4EEA113114EB5C04C2BFD4EB14
:104740000C0541EA045170BD41F480114FF0000E98
:10475000013C90E645EA060E8DE60CEA135594EA14
:104760000C0F08BF95EA0C0F3FF43BAF94EA0C0F17
:104770000AD150EA01347FF434AF95EA0C0F7FF48C
:1047800025AF104619462CE795EA0C0F06D152EAE0
:1047900003353FF4FDAE1046194622E750EA4106C4
:1047A00018BF52EA43067FF4C5AE50EA41047FF4D5
:1047B0000DAF52EA43057FF4EBAE12E74FF0FF3C3A
:1047C00006E000BF4FF0010C02E000BF4FF0010C0B
:1047D0004DF804CD4FEA410C7FEA6C5C4FEA430C84
:1047E00018BF7FEA6C5C1BD001B050EA410C0CBFD3
:1047F00052EA430C91EA030F02BF90EA020F002035
:10480000704710F1000F91EA030F58BF994208BF9B
:1048100090422CBFD8176FEAE37040F00100704758
:104820004FEA410C7FEA6C5C02D150EA013C07D1AF
:104830004FEA430C7FEA6C5CD6D152EA033CD3D0FA
:104840005DF8040B704700BF8446104662468C46F4
:104850001946634600E000BF01B5FFF7B7FF002827
:1048600048BF10F1000F01BD4DF808EDFFF7F4FF50
:104870000CBF012000205DF808FB00BF4DF808EDDB
:10488000FFF7EAFF34BF012000205DF808FB00BFFE
:104890004DF808EDFFF7E0FF94BF012000205DF820
:1048A00008FB00BF4DF808EDFFF7CEFF94BF0120D5
:1048B00000205DF808FB00BF4DF808EDFFF7C4FFCE
:1048C00034BF012000205DF808FB00BF4A0011D270
:1048D00012F5001211D20DD56FF47873B3EB62525A
:1048E0000ED44FEAC12343F0004343EA505323FA66
:1048F00002F070474FF00000704750EA013002D1DB
:104900004FF0FF3070474FF00000704753B94AB97D
:10491000002908BF00281CBF4FF0FF314FF0FF30C7
:1049200000F092B9ADF1080C6DE904CE00F024F866
:10493000DDF804E0DDE9022304B07047D0B50C4B8C
:10494000002206460F46FFF727FDFFF7BFFF04468C
:10495000FFF7A8FC074B0022FFF71EFD02460B469F
:1049600030463946FFF760FBFFF7B0FF2146D0BD68
:104970000000F03D0000F0412DE9F047089D04469D
:104980008E46002B4DD18A42944669D9B2FA82F202
:1049900052B101FA02F3C2F1200120FA01F10CFA3E
:1049A00002FC41EA030E94404FEA1C48210CBEFB76
:1049B000F8F61FFA8CF708FB16E341EA034306FBFF
:1049C00007F199420AD91CEB030306F1FF3080F08E
:1049D0001F81994240F21C81023E63445B1AA4B2DB
:1049E000B3FBF8F008FB103344EA034400FB07F77D
:1049F000A7420AD91CEB040400F1FF3380F00A81BE
:104A0000A74240F207816444023840EA0640E41BB2
:104A100000261DB1D4400023C5E900433146BDE85E
:104A2000F0878B4209D9002D00F0EF800026C5E900
:104A3000000130463146BDE8F087B3FA83F6002E18
:104A40004AD18B4202D3824200F2F980841A61EB90
:104A5000030301209E46002DE0D0C5E9004EDDE7AE
:104A600002B9FFDEB2FA82F2002A40F09280A1EB96
:104A70000C014FEA1C471FFA8CFE0126200CB1FBEB
:104A8000F7F307FB131140EA01410EFB03F08842E4
:104A900008D91CEB010103F1FF3802D2884200F271
:104AA000CB804346091AA4B2B1FBF7F007FB101103
:104AB00044EA01440EFB00FEA64508D91CEB0404A1
:104AC00000F1FF3102D2A64500F2BB800846A4EBFC
:104AD0000E0440EA03409CE7C6F12007B34022FAE7
:104AE00007FC4CEA030C20FA07F401FA06F31C4316
:104AF000F9404FEA1C4900FA06F3B1FBF9F8200C23
:104B00001FFA8CFE09FB181140EA014108FB0EF068
:104B1000884202FA06F20BD91CEB010108F1FF3AB8
:104B200080F08880884240F28580A8F102086144C4
:104B3000091AA4B2B1FBF9F009FB101144EA0141D2
:104B400000FB0EFE8E4508D91CEB010100F1FF347D
:104B50006CD28E456AD90238614440EA0840A0FB15
:104B60000294A1EB0E01A142C846A64656D353D0EB
:104B70005DB1B3EB080261EB0E0101FA07F722FA0F
:104B800006F3F1401F43C5E9007100263146BDE838
:104B9000F087C2F12003D8400CFA02FC21FA03F39B
:104BA000914001434FEA1C471FFA8CFEB3FBF7F01C
:104BB00007FB10360B0C43EA064300FB0EF69E4241
:104BC00004FA02F408D91CEB030300F1FF382FD2DA
:104BD0009E422DD9023863449B1B89B2B3FBF7F682
:104BE00007FB163341EA034106FB0EF38B4208D95B
:104BF0001CEB010106F1FF3816D28B4214D9023E9C
:104C00006144C91A46EA004638E72E46284605E7B9
:104C10000646E3E61846F8E64B45A9D2B9EB02088A
:104C200064EB0C0E0138A3E74646EAE7204694E71A
:104C30004046D1E7D0467BE7023B614432E730464D
:104C400009E76444023842E7704700BF10F8012BBF
:104C500011F8013B012A28BF9A42F7D0D01A7047B9
:104C6000034613F8012B002AFBD1181A01387047AC
:104C700009480A49884208B505D0094A824202D04B
:104C8000121A04F043F80748074A0021121A04F0E8
:104C90004BF8014808BD00BF30E50320FCA40B0021
:104CA0009CE50320A0E50320F4E7032070B5074E40
:104CB000074C03F099FDA41BA4080025AC4200D1C9
:104CC00070BD56F8043B98470135F7E7ACA40B00DC
:104CD000D0A40B0000F0F2BE08B500F063FEBDE802
:104CE000084003F039BD02F02BBC02F029BC02F0F1
:104CF0002FBC000008B5034A03490C2002F074FBE6
:104D0000FEE700BF69700B00B48F0B000078B0FAAB
:104D100080F040097047012303707047014B002267
:104D20001A7070476CE6032010B50446008B03F040
:104D300008FE2060FFF7C6FA16A3D3E90023FFF7A9
:104D40002BFB16A3D3E90023FFF750FC0E4B0022E8
:104D5000FFF76AF90D4B0022FFF71EFB02460B46D8
:104D6000C4E9022306A3D3E90023FFF715FB084B90
:104D70000022FFF75BF9C4E9040110BDAFF3008026
:104D8000CDCCCCCCCCCCFC3F0000E03F0000594067
:104D9000000040406666666666660A4000000000E5
:104DA00000FEAF4013B500210446084602F00CF99E
:104DB0000023204601A9019302F01EF9019C0CB1C9
:104DC000012323710021012002F0FEF82CB1236899
:104DD00020469B6898470023237102B010BD10B491
:104DE00003685A6899681B68541001EB6200D20787
:104DF00048BF0A595DF8044B48BFD3581847012AE9
:104E000038B5044602D10B68236003E0022A03D0C0
:104E1000032A0DD0002038BD0C200D68FFF763FF7A
:104E200003460028F0D095E8070083E80700EBE789
:104E300000680028EED00C21FFF759FFEAE7012AAD
:104E400002D1016000207047022A04BF0B68036092
:104E5000F8E703681847000008B502F00DF9034BA6
:104E60001860BDE8084002F0FBBA00BF2CE7032041
:104E700010B58368044613B10322014698472046C3
:104E800010BD000037B5134B036004468068C8B1FD
:104E900000256FF00043CDE9003502212B462A465C
:104EA00002F0B2F8A068294602F0CEF8237903F0A8
:104EB000FF0513B102F080F8F8E7A068294602F078
:104EC00093F8A56004F10C00FFF7D2FF204603B071
:104ED00030BD00BF94900B0010B50446FFF7D2FF21
:104EE00020461C21FFF703FF204610BD03682BB1AD
:104EF0004268934202D2184603F000BF0020704778
:104F000038B50568044645B143689D4205D2284638
:104F1000FFF7A6FE013005442560204638BDF8B5F0
:104F2000044647680D4621B903687A1C4260D9558A
:104F3000F8BD0846FFF794FEA368461CF2199A4292
:104F4000F6D8206832462946384403F0DFFE606810
:104F500030446060ECE7000038B504460B46D0E909
:104F600001012568044A091A284402F001FB63681C
:104F700001300344636038BDC98F0B0038B5044667
:104F80000B46D0E901012568044A091A284402F0B9
:104F9000EFFA636801300344636038BDCC8F0B00C7
:104FA00010B501210446064801F03DFA0448216885
:104FB0004FF001134361BDE8104002F038BD00BF5F
:104FC000FCE50320826810B50AB903F07CFDBDE85A
:104FD0001040C368184708B5436913B10C30FFF798
:104FE000F1FF08BD38B5074D0024D5E900031B1AB1
:104FF000B4EB231F05D200EB0410FFF7E3FF0134ED
:10500000F3E738BDB0E6032008B500234377006816
:1050100003F0D2F9BDE8084001F025BF13B50B46F7
:105020000246D0E900016C4684E8030093E80300DF
:1050300082E8030094E8030083E8030002B010BD97
:1050400038B50D46044668B1002383600146284602
:10505000FFF7E4FFAB68A268AA60A360EB68E268B0
:10506000EA60E36038BD00002DE9F74FD0E9008B1E
:1050700007466FF07843ABEB0800B3EB201F8A467E
:1050800011464FEA201202D1244803F019FD012AEB
:10509000144638BF0124A418AAEB08051BD2E4B1BA
:1050A0009C4228BF1C4620010191FFF71CFE01997C
:1050B00006467019FFF7C4FF45463046AA4500F181
:1050C00010090CD02946FFF7BBFF2846FFF7D0FE9A
:1050D00010354846F2E71C46E5E72646E9E75D4518
:1050E0000AD029464846FFF7ABFF2846FFF7C0FE27
:1050F000103509F11009F2E7B8F1000F05D0B968D1
:105100004046A1EB0801FFF7F2FD06EB0414C7E9E6
:105110000069BC6003B0BDE8F08F00BFD08F0B000A
:105120002DE9F04301EB02098FB04945CDE905199E
:1051300080460D46164680F0928005A80F88FFF73E
:10514000DFFE03684B4580F08A8005A8FFF7CEFE9E
:1051500047F276239F42C4B200F0A98027D847F2D5
:1051600061239F427ED047F264239F4242D046F69D
:1051700070539F4228D1634E634FDFF8A081059B97
:1051800099456CD905A8FFF7B1FEC4B205A8FFF791
:10519000B7FE059D31462846FFF758FD0146E0B9A8
:1051A000204603F091FB05A8FFF7AAFEE7E747F2C8
:1051B00064739F423FD047F276739F4200F087802E
:1051C00047F261739F425FD00023CDE90133022291
:1051D0000092B8F81A20194629E039462846FFF708
:1051E00035FD28B141462846FFF730FD0028DAD1C9
:1051F0000121D5E70AAB4549079307A810230025ED
:10520000CDE90853FFF78BFE07A82146FFF7A4FE60
:10521000204603F083FB014607A8FFF7AFFE089B7B
:10522000CDE90155013B0093079B2A4614214046D6
:1052300000F084FA13E005A8FFF762FE03689945C1
:105240000DD9A4B20121204603F03EFB05A8FFF7CB
:105250004DFE011E18BF0121204603F046FB0FB092
:10526000BDE8F0830AAB079307A81023284900255F
:10527000CDE90853FFF753FE07A82146FFF76CFE60
:10528000204603F05EFBC6E705A8FFF739FE03687A
:105290009945E4D9A4B20121204603F015FB05A8E5
:1052A000FFF724FE0146204603F062FBD7E72046C5
:1052B0008DF8284001F0D8FD03460AA823B1154A0D
:1052C000934201D09847CAE701F0CBFDC7E705A894
:1052D000FFF716FE059B8DF81C405D1B751B2046D5
:1052E000CDE90A350C9501F0C9FD03460AA907A8C6
:1052F00023B1094A934201D09847B0E701F0B2FDCB
:10530000ADE700BFEA8F0B00ED8F0B00F58F0B00B0
:10531000F88F0B00636E0B00656E0B00F18F0B00B6
:105320002DE9F0418CB004AF044605220068391D18
:1053300002F0A3FCA8B3052804D000202037BD4606
:10534000BDE8F081B7F8050001F04EFFA7F80500B1
:10535000B7F8070001F048FFB7F80530A7F80700D5
:105360008046002BE9D03B7923BB01F078FD024653
:10537000E060607FB7F80730C0B9B7F805100129C1
:1053800014D1092B0FD0C82B01D0042BD6D1012565
:1053900062612046657700F081FAFFF75DFD01F05C
:1053A00062FD0120CAE703236377C7E7581F18BFD0
:1053B0000120C3E7B0F5806F03D92046FFF724FE34
:1053C000EFE700F1080323F007036E46ADEB030D92
:1053D00004AD02462946206802F04FFC80454FF09C
:1053E00000007FD1B7F80730E85401F038FD3B7971
:1053F000E060142B00F0A68048D80F2B00F0A280AC
:1054000007D8022B48D0062B51D02046FFF7FCFDD1
:1054100058E0112BF9D100233B70B7F807302B442B
:105420009D42C7E903534DD207F10C00D5F8008027
:10543000FFF766FDFB68B7F807105D1B4D1BC7E95A
:1054400005357B68FD61C3F30F236383644B984587
:1054500000F0BF8000F28C80A3F57F236FF4007210
:105460001344984500F09D8079D8A3F50033063B9E
:10547000984500F09C8003F50033033398456BD1C9
:1054800007F11401384601F0EDFC65E0292B1BD033
:10549000372B17D01D2BB8D1637F43B90123637716
:1054A000204600F0FBF9FFF7D7FC01F0DCFC0023FD
:1054B000C821B7F805200091CDE9013319462046EF
:1054C00000F03CF901200DE0A3681BB9402002F078
:1054D00037F8A060B7F80780A8444545C7E90558E4
:1054E00002D30020B54629E729464022A06803F0F0
:1054F00051FCA368002583F83F5007F11400FFF723
:10550000FFFC036898451BD9786920B1BB699842B4
:1055100014D203F0F7FB85B2206802F04DFF236838
:10552000A2685A631D870023637701F098FCA0F5F9
:105530009C500838C4E903006061C3E72846EAE7E5
:105540005025E9E77B68B7F80720C3F30F2363838F
:1055500029462046FFF7E4FD00236383B2E7214B91
:105560009845F9D107F11401384601F07BFCF3E7C7
:105570001D4B984521D003F19F6303F5003303F5DC
:10558000807398451FD003F16E4303F5302303F574
:1055900086739845E0D107F11401384601F062FCAA
:1055A000DAE707F11401384601F05CFCD4E707F1B3
:1055B0001401384601F056FCCEE707F114013846D5
:1055C00001F050FCC8E707F11401384601F04AFC2D
:1055D000C2E707F11401384601F044FCBCE700BF04
:1055E000766673006462670061636F6E2DE9F04157
:1055F00004468CB00D46FFF72FFC637F022B1ED0B4
:10560000237F628B0133DBB22377AAB9022B13D835
:10561000206802F099FDA8B125B9206802F072FE59
:1056200000280FDD2046FFF77BFE0028F5D120681B
:1056300002F0C2FE01F017FC237F013B23770CB080
:10564000BDE8F08101F00BFC0546206802F07CFD0E
:10565000677F012F064624D120B965612046FFF7F8
:10566000D3FCE9E7E3684FF21862EB1A9342F5D8EE
:105670004AF6C872934203D82369EB1A9342DBD9E6
:10568000636941F27072EB1A9342D5D90023CDE9D8
:10569000013300931A460621204600F04FF8656159
:1056A000CAE7002FC8D16369EB1A40B141F27072AA
:1056B0009342C1D9206802F07FFE6777BCE741F2D0
:1056C00088329342B8D9206802F076FED4F800C040
:1056D000DCF834E0BCF83880BEF1000F1BD0334654
:1056E00042467146604602F0B1FC0128D7D163689A
:1056F0000593012518462583FFF7B2FA0022CDE96C
:105700000122059B00902A461D21204600F016F834
:105710002369636190E7084B06930CF120070FCFD4
:1057200007AE0FC63B6833704246734606A9604613
:1057300002F06CFDD9E700BFB8A00B002DE9F04FD7
:1057400083B000AF044600683D6B88461646994614
:10575000EB4602F0F9FC002800F08180B8F11D0F43
:1057600004D84D4B23FA08F3DB0702D4637F012BE7
:1057700075D146B9668B36B9238B01339BB2002BAA
:1057800072D02383268BA8F10C03082B16D8D4E9FA
:105790000323934238BF134603F1420A01F05FFB33
:1057A000AAEB0000002861DB00212046FFF71EFF66
:1057B00001F055FBAAEB00000028F5DAB9F1000F63
:1057C0005BD06B1D7A6B002ABA6B08BF002203EB1B
:1057D000020A0AF1070323F00703ADEB030D30467D
:1057E0008DF80080C7F804D001F006FDBB6BADF862
:1057F0000100E81880B201F0FFFCADF80300B9F138
:10580000000F3CD0002D3AD02A4649460DF1050044
:1058100003F07CFA681D7B6B3BB1BB6B2BB11A4666
:105820007B68796B184403F071FA002555452AD23C
:10583000AAEB05027B682068B2F5806F28BF4FF4A1
:105840008062591902F033FB0646002001F005FB87
:10585000BEB9206802F0B0FD667701F004FB0C379A
:10586000DD46BD46BDE8F08F01238AE7217F002990
:10587000A4D12046FFF7BAFEA0E70523A2E7052042
:10588000C9E73544D2E703D02046FFF7BDFBE6E782
:1058900001F0E5FA2061E2E74500002030B599B05B
:1058A00008AB044605930025402305A80B49CDE924
:1058B0000653FFF734FB05A80949FFF730FB069BA9
:1058C0000293059B0193652300932A46054B112102
:1058D0002046FFF733FF19B030BD00BFFB8F0B0030
:1058E00000900B00A8900B0070B5ADF5846D08AB6F
:1058F000164600240546059305A84FF48063CDE9BC
:105900000643FFF70CFB314605A8FFF708FB069B93
:10591000013B0093CDE90144059B224640212846E6
:10592000FFF70CFF0DF5846D70BD000070B52DED17
:10593000028BB0EE408AF0EE608AADF5846D08AB64
:10594000002405460E46059305A84FF480631349CD
:10595000CDE90643FFF7E3FA314605A8FFF7FCFA65
:10596000DDE9063105980E4AC91A8DED008B184401
:1059700001F0FEFD431C069803440693013B00938F
:10598000CDE90144059B224614212846FFF7D6FEA7
:105990000DF5846DBDEC028B70BD00BF0E900B0049
:1059A00011900B0070B586B0FFF71CFB0021394841
:1059B000394DFFF71BFE394801F0DBFA3748002468
:1059C000046100F0E9FE354801F0ECFAD8B1344E3C
:1059D000B06801232B7030B1CDE900442346224644
:1059E000022101F011FBB06840B100236FF00042CA
:1059F000CDE9002319461A4601F006FB294A2A4937
:105A00002448FFF771FF294C224894ED020B002136
:105A1000FFF78CFF94ED040B1E480221FFF786FF71
:105A20002B787BB1224902A802F0E7F902A8FFF720
:105A3000B7FA02A802F096F9184806B0BDE870401F
:105A400001F018B91B4902A802F0D7F902A8FFF724
:105A5000A7FA02A802F086F994ED040B062102A829
:105A600002F0F1F902A8FFF79BFA02A802F07AF916
:105A7000114902A802F0C1F902A8FFF791FA02A8A1
:105A800002F070F994ED020B062102A802F0DBF996
:105A9000CCE700BFA0E503206CE60320FCE5032073
:105AA00070E6032017900B002A900B0090E603206D
:105AB00035900B0047900B0053900B00F0B5324C23
:105AC00085B00F2000212083002502F0FDFE0C2070
:105AD0000295FFF708F918B12C4B8460C0E9003536
:105AE0002B4B2C4C03932C4B00900293D4E90103D5
:105AF000984233D06946FFF7A3FA636810336360B6
:105B00006846FFF7B5F9254C40F6B83001F0A5F925
:105B1000234B636001F0A3F9A0F59C502368214A50
:105B20005A630838C4E90300502260611A870026CE
:105B300044F24F67206802F03FFC667701F08FF96E
:105B40000546637F012B12D001F089F9401BB84252
:105B50000AD800212046FFF749FDF2E701466A46D0
:105B60002046FFF781FACBE7637F012BE2D10E4895
:105B700001F0D6F90C4800F00FFE0B4805B0BDE867
:105B8000F04001F077B800BF90E60320294D0B00EC
:105B9000DF4D0B00B0E60320FF4D0B00A0E5032016
:105BA0005C900B007D900B00FCE5032030B5254D8B
:105BB00087B0284602F04AFC05F11C0001F0EEFD1A
:105BC000214B0024C3E90054C3E90244C3E904445F
:105BD0009C619C831D4B6C63C3E900449C602C87D3
:105BE0002146012001F020FC07211948194D01F040
:105BF00069F9194B0293194B0593194B0493194BEF
:105C00002B6005F10C0102A82C71AC606C61FFF7F0
:105C100005FA049B6A696B61059B0492AA69AB61F2
:105C2000012305920093104A01942B4641F28831DA
:105C300005F1080001F0D0F902A8FFF719F907B043
:105C400030BD00BFC0E50320A0E50320B0E603207F
:105C5000FCE5032070E603201D4D0B00534E0B00A6
:105C60003F4E0B0094900B00A54D0B002DE9F04F1B
:105C700085B01F46BDF93880BDF83C30A8EB02095D
:105C8000A7EB010AB9F1000FB8BFC9F10009BAF1D9
:105C9000000FB8BFCAF1000AD14583460C4615462D
:105CA00004DD3A462C4647460D469046BC4205DD8B
:105CB0002A464546904622463C4617463E1BB2B20F
:105CC0000092A8EB050282EAE271A1EBE271C6F351
:105CD000C03202FA86F64545B4BF01224FF0FF32CA
:105CE000019176100292BC421CDCDBF80020039389
:105CF000D145D2F81880C7BF294622462A462146F8
:105D00005846C047019A039BB61AB1B236B2002E6C
:105D100005DA029A1544009A56182DB236B20134AB
:105D200024B2E0E705B0BDE8F08F704710B4046816
:105D30002469A4465DF8044B604730B40468BDF89C
:105D400008500295A46BA44630BC604730B4046888
:105D5000BDF808500295E46BA44630BC604770B4AF
:105D6000BDF90C50BDF810600468CDE90356246CF1
:105D7000A44670BC60472DE9F3411C460368BDF89A
:105D800020805B6905461646013C34440F4624B228
:105D900098472B68CDF8048000949C6A28463B46BF
:105DA00032463946A0472B68DB6A284602B0BDE878
:105DB000F04118472DE9F3411D460368BDF82080E6
:105DC0005B69044617460E469847CDE9007822687D
:105DD0006B1E3344956A20461BB23A463146A847AB
:105DE0002368DB6A204602B0BDE8F04118472DE980
:105DF000F3471E460368BDF928905B69BDF82C8007
:105E00000C460546174698472644B4422B680BDAE1
:105E1000CDF80080D3F820A021464B463A462846CC
:105E20000134D04724B2F0E7DB6A284602B0BDE86F
:105E3000F047184713B502680191B0F90E100091B0
:105E4000146CB0F90C3000221146A04702B010BD0E
:105E50002DE9F74399421646BDF92870BDF82C90FC
:105E6000026880460D461C4613D1BE42C8BF334669
:105E7000CDF82890C4BF3E461F467B1C946B9B1BED
:105E80001BB2324629464046A44603B0BDE8F04363
:105E90006047BE420AD19942C2BF0B4625461C4606
:105EA000631CCDF82890D46B5B1BE9E753699847D6
:105EB000CDE90079D8F8003040469F6A3246234643
:105EC0002946B847D8F80030DB6A404603B0BDE841
:105ED000F04318472DE9F3471D460368BDF82C80B1
:105EE0005B69BDF9289004460F461646984723681B
:105EF000CDF80080D3F824A032462B463946204600
:105F0000D0472368CDF8008009F1FF323244D3F83E
:105F100024A039462B46204612B2D0472368CDF83C
:105F20000080D3F820A032464B4639462046D04761
:105F30006B1ED9192368CDF800801D6A20464B4698
:105F4000324609B2A8472368DB6A204602B0BDE8A2
:105F5000F0471847704701F00303B0F90A20837631
:105F6000C907B0F9083059BF8381C2818281C381DA
:105F70007047000030B54281C281074A074D018158
:105F8000002481814FF0FF31C0E9051244600560B3
:105F900004610477046230BD0101000118960B0012
:105FA0002DE9F04F89B0CDE902120268BDF94880B1
:105FB0000493BDF94C3052690593BDF850A00446D6
:105FC000904718F107024FF0000648BF08F10E0293
:105FD0004FEAE20B01963546039B019ABDF9041086
:105FE0009A18059B8B4212B227DD049B33444FF075
:105FF000000906930FFA89F080451FFA89F117DD31
:106000004F0705BF069BC0106D001D5C18BFEDB2A9
:106010002B060AD5029B206807921944836909B2AE
:106020001F4620465346B847079A09F10109E1E7A0
:10603000019B013301935E44CEE72368DB6A20466F
:1060400009B0BDE8F04F18472DE9F04F2DED028B58
:1060500091B01646026ABDF874809DF878509DF89C
:106060007C4003911F46BDF8703004938346002A9C
:1060700040F0C580B0F90C308B4240F34C81B0F950
:106080000E30B34240F34781062313FB0513002B68
:1060900040F3418106EBC403002B40F33C81037FB6
:1060A0001BB9AF2F84BF0137FFB2DBF80030584671
:1060B0005B6998470522099200220592984A07EBEE
:1060C0008703D3180C93B3B20693059A0C9B9B5C81
:1060D0000793ABB20B93BDF80C300893039B02FB04
:1060E00005F919FA83F90FFA89F308EE103A082333
:1060F0000A93039B02EB030A4FF000090FFA8AFA96
:10610000079ADBF80030D20752D5012D1FFA89F229
:106110003ED1012C3CD19B6906991F46049B0A4441
:1061200012B251465846B84709F101034FFA83F9B4
:10613000079B5B0807930A9B013B13F0FF030A933D
:10614000DED1059F01377BB20593099B013B13F01C
:10615000FF030993B9D1049B43450FD0012DDBF810
:1061600000303BD1012C39D10899CDF800800531A0
:106170001C6A3246082309B25846A047DBF80030B3
:10618000DB6A584611B0BDEC028BBDE8F04F1847F2
:10619000069914FB02F20A44049901910094DB6908
:1061A00018EE101A1F4612B22B465846B847BBE7E6
:1061B000049A4245B8D0012D1FFA89F207D1012C6B
:1061C00005D19B6906991F460A444346A8E70699EC
:1061D000CDF8048014FB02F20A44DFE70B9ACDF8F5
:1061E000048002EB8201089AE4000A4411460094FC
:1061F000DC6932462B4609B25846A047BEE7137AFF
:10620000516812680B92FF1AFFB201EBC70331F815
:10621000372006929A780992DA780C92012D93F938
:10622000052093F906A00A9201D8012C57D9BDF98F
:10623000283008930FFA8AF30793DBF800305846AA
:106240005B699847B3B24FF000080E931AFA86F3D1
:10625000C14647460F930C9B9F428FD2079B0E9AD5
:106260003B4403FB0423002205920F9A1BB202EB6E
:10627000070A08EE103A0FFA8AFA4346099A059976
:10628000914241D25A1CD2B25B070D9207D1069BB4
:1062900006990B9A01339BB212F80190069319F0FC
:1062A000800F12D0012DDBF80030BDF80C101AD190
:1062B000012C18D10A9A9B691144059A11441E4673
:1062C0005246049B09B25846B047059E0136F3B2C8
:1062D0004FEA490905935FFA89F90D9BCEE7002340
:1062E000CDE90733A9E70598089A024402FB051196
:1062F000049ACDE90042DB6918EE102A1E4609B265
:106300002B465846B047E0E7099B013798445FFAAF
:1063100088F8FFB29FE711B0BDEC028BBDE8F08FAB
:106320000F910B00F0B5026A85B004460B46002AB7
:1063300034D10A2908D1438A0282427E03EBC20388
:106340006382012005B0F0BD0D29FAD0E17E007E08
:10635000657E71B1B4F91060062111FB0061B4F9DA
:106360000C60B142C1BFB4F91210228201EBC50228
:106370006282E28A0192A28A0092CDE90205B4F912
:106380001220B4F910102046FFF75EFE237E228A09
:1063900003EB430302EB43032382D2E70A2907D12D
:1063A00000230382417E927A438A01FB0233C7E7CE
:1063B0000D29C6D0157AA942C3D3517A9942C0D3C8
:1063C00051685D1BEDB201EBC505A87828B3E978EB
:1063D00019B3E17E267E677E91B195F905100844D8
:1063E000B4F9101006FB0011B4F90C00814207DD6E
:1063F00000202082B4F91210927A02FB0712628206
:10640000E28A0192A28A0092CDE90267B4F91220D1
:10641000B4F910102046FFF717FE2979227E238A4F
:1064200001FB0233B8E7012938BF0121017641762B
:106430007047704710B510210446FEF758FC2046FF
:1064400010BD0EB403B503AB002153F8042B019328
:1064500001F015FB02B05DF804EB03B070470000DB
:1064600073B5044608462279A36832B1A3B90B4933
:1064700002B0BDE8704001F0C7BA094A267B094D59
:106480000949647B012E18BF2946CDE9001407494C
:10649000FFF7D7FF02B070BD054AEFE779960B0012
:1064A00070960B0075960B0071960B008F960B0083
:1064B00068960B0010B5044B03600446C06A08B12F
:1064C00001F046F8204610BD689B0B0010B504464D
:1064D000FFF7F0FF20465021FEF709FC204610BDD3
:1064E000002910B54BDBB0F90C408C4247DD002A87
:1064F00045DBB0F90E40944241DD847E022C1FD072
:10650000032C26D0012C04D10489D24314440A461A
:1065100021B2012B23D0022B32D083BB002A134699
:106520000489C06AB8BFD31DDB1013FB041102F04D
:10653000070201239340425C22EA030242541EE018
:106540000489013C611A4489D243224409B212B23F
:10655000DFE74489013C641A114622B2D9E7002AD8
:1065600004891346B8BFD31DDB1013FB0411C36AA3
:1065700002F0070001228240585C02435A5410BDC9
:10658000002A13460489C06AB8BFD31DDB1013FB71
:10659000041102F00702012303FA02F2435C5A409D
:1065A000CCE7000070B504461D460026FFF7E2FC6C
:1065B000114B2360666215B902F01CFA0546FF23F1
:1065C00084F8333084F836309DF9103084F8373051
:1065D0000A4BA363012384F83C30059BA3644FF668
:1065E000FF72069BA286C4E90A562664A4F844609A
:1065F000E364204670BD00BF689B0B00B4960B009F
:10660000F8B50446806A0D4690B194F9301001F057
:1066100081F8A06A036800219B689847A06A036814
:1066200029469B689847A06ABDE8F84001F079B810
:1066300094F93530014698B202F057F9606A20B1FA
:106640002946BDE8F84001F0FDBA0826802794F9F4
:10665000330005EA070180B202F047F994F93400EB
:10666000012180B202F041F994F93400002180B296
:1066700002F03BF9013E4FEA5707E8D1F8BD38B5C3
:106680000446806A0D4680B1A16C01F035F8002DFA
:10669000204614BFA721A621FFF7B2FFA06A88B148
:1066A000E16CBDE8384001F027B8606A18B104F128
:1066B000380101F059FA94F93600002180B202F055
:1066C00014F9E4E794F93600012180B202F00DF9E3
:1066D000606A18B1BDE8384001F02CBA38BD2DE928
:1066E000F8430446806A0D468F1840B394F9301081
:1066F00001F010F8A06A036800219B689847012602
:10670000AF42A06A17D01F2E0CD901F00AF894F9F5
:106710003010A06A00F0FEFFA06A036800219B68A9
:1067200098470126A06A15F8011B036801369B688B
:106730009847F6B2E4E7BDE8F84300F0F2BF94F9F9
:106740003530014698B202F0D0F8BD4222D0606ADE
:1067500015F8019B18B1494601F074FAF5E70826CF
:106760004FF0800894F9330009EA080180B202F082
:10677000BCF894F93400012180B202F0B6F894F923
:106780003400002180B202F0B0F8013E4FEA580810
:10679000E8D1DAE7BDE8F883B0F90A30DA1D48BF7E
:1067A00003F10E02B0F90830C06AD2105A4300213A
:1067B00002F0BABA2DE9FF411E46C36A9DF828804F
:1067C00004460F461546C3B12046FFF7E5FFB4F96E
:1067D0000A00B4F90810202821DC202301222038E7
:1067E000CDE9013200EBD07073237339009301EBD4
:1067F000D171894B40F34F0221E0B0F90A30D81D26
:1068000048BF03F10E00B4F90830C010584300F03F
:1068100097FEE0620028D7D104B0BDE8F08140388F
:10682000C0F3C03202FA80F240230120CDE90130EA
:10683000522352390093794B01EBD171521020460B
:1068400041F34F01FFF7ACFBA06A84F831700028D8
:1068500078D0002D74D1B4F90A30202B0CBF3C2520
:106860003D2584F83050B8F1000F01D000F048FF0A
:10687000FEB194F9370000281BDB012180B202F041
:1068800023F894F93700012180B202F02EF801209C
:1068900000F09EFE94F93700002180B202F025F846
:1068A0000A2000F095FE94F93700012180B202F031
:1068B0001CF8A06A002874D0A16C00F01DFF04220F
:1068C00057492046FFF70BFF61890139C9B22046BD
:1068D000FFF796FE534904222046FFF700FF94F984
:1068E0003130012B0CBF102114212046FFF788FE08
:1068F00004224D492046FFF7F2FEA3684B4A93421B
:106900005CD14B4904222046FFF7E9FED9212046FD
:10691000FFF776FE94F93130012B0CBF2221F121D3
:106920002046FFF76DFE204642490622FFF7D7FEBC
:10693000A06A002863D0E16C00F0DEFE01206BE766
:106940006DB28EE794F93500012180B201F0BCFFF1
:1069500094F93600012180B201F0B6FF94F93600B7
:10696000012180B201F0C1FF656A3DB1B8F1000FAD
:106970003FF47EAF284601F0C9F879E794F9330077
:10698000012180B201F0A0FF94F93400012180B20E
:1069900001F09AFF94F93400294680B201F0A5FF76
:1069A00066E7606A18B104F1380101F0DDF894F986
:1069B0003600002180B201F098FF80E71E4A934222
:1069C0000ED11E4903222046FFF789FE94F931308B
:1069D000012B0CBF9F21CF212046FFF711FE95E729
:1069E000174A934292D1174903222046FFF777FEB8
:1069F00094F93130012B0CBF1021AF21ECE794F951
:106A00003600012180B201F070FF606A002895D045
:106A100001F090F892E700BF80990B00C0960B0040
:106A2000C89B0B00CC9B0B00D09B0B008000200070
:106A3000DA9B0B00D49B0B0080004000DE9B0B0018
:106A400060001000E19B0B0070B5002ABDF81050EB
:106A50003DDBB0F90A40944239DD0029BEBF5B1826
:106A60001BB20021B0F90840CE18A642C4BF631A79
:106A70001BB2002B2BDDC06AD61014FB061101449B
:106A800002F0070001228240012DD2B216D0022D61
:106A90000BD0E5B9D243D2B20B44994217D011F8CA
:106AA000010B104001F8010CF7E70B4499420ED09E
:106AB00011F8010B504001F8010CF7E70B44994223
:106AC00005D011F8010B104301F8010CF7E770BD78
:106AD000F0B50029BDF8145076DBB0F90860B1427A
:106AE00072DA002ABEBF9B181BB20022B0F90A401E
:106AF000D718A742C4BFA31A1BB2002B64DDC2F390
:106B0000C404C76A16FB041612F00702DBB207EBD7
:106B1000060423D0C2F10802D2B22D4993423CBFF1
:106B20004FF0FF0CA2EB030E895C3CBF4CFA0EFC4D
:106B30000CEA0101012D07D0022D2ED04DB917F816
:106B400006C02CEA010103E017F806C041EA0C0177
:106B5000B955934238D3B0F908100C449A1AD2B2FE
:106B6000072A0ED9022D1DD113462178C943217061
:106B7000083BB0F90810DBB2072B0C44F5D802F043
:106B800007020AB3134B012D9B5C1AD0022D1CD0B7
:106B9000D5B9227822EA030315E017F806C081EA86
:106BA0000C01D5E7291E18BF01214942C9B213467D
:106BB0002170083BB0F90860DBB2072B3444F7D8EA
:106BC000DDE7227813432370F0BD22785340FAE7C3
:106BD000B89B0B00C09B0B0070B41446827EBDF8BE
:106BE0000C60022A0DD0032A18D0012A11D1028983
:106BF000E443144424B203960A46214670BCFFF7CE
:106C000067BF42890589E44319441444691A24B2D0
:106C100009B20396224670BCFFF716BF4589194496
:106C2000691A09B2E7E730B41446827EBDF808500D
:106C3000022A0DD0032A18D0012A11D1E2180489A2
:106C4000A41A24B202950A46214630BCFFF7FCBEC6
:106C50000289C9431144E2184489A41A09B224B232
:106C60000295224630BCFFF733BF4289C943114425
:106C700009B2E7E72DE9F8430446806A002842D0CC
:106C8000A16C00F039FD474905222046FFF727FD9A
:106C9000218901392046C9B2FFF7B2FCB4F90A30A4
:106CA000DE1D48BF03F10E06D4E90A052389F6105C
:106CB00013FB06F615FA86F600283AD094F9301040
:106CC00000F028FDA06A036840219B6898470127CF
:106CD000B542A06A24D01F2F0CD900F022FD94F9F0
:106CE0003010A06A00F016FDA06A036840219B687E
:106CF00098470127A06A15F8011B036801379B68B4
:106D00009847FFB2E4E7606A18B104F1380100F077
:106D10002BFF94F93600002180B201F0E6FDB2E7C6
:106D200000F0FFFCA06A78B3E16CBDE8F84300F026
:106D3000E3BC94F93500012180B201F0D6FDAE42EA
:106D4000F0D0606A15F8019B18B1494600F07AFF4F
:106D5000F5E708274FF0800894F9330009EA0801A5
:106D600080B201F0C2FD94F93400012180B201F03B
:106D7000BCFD94F93400002180B201F0B6FD013F62
:106D80004FEA5808E8D1DAE794F93600012180B2D9
:106D900001F0ABFD606A18B1BDE8F84300F0CABE6F
:106DA000BDE8F883E49B0B0000210A22C0E9001231
:106DB0007047002310B50446C171837188B201F099
:106DC000ADFD08B10323A37100F056F9206010BD9A
:106DD00038B50C4605461146A0B201F075FD2146B6
:106DE0002846BDE83840FFF7E4BF38B50446C0790F
:106DF00001F094FDA579003825F0080318BF0120A3
:106E0000C5F340058542A3710AD000F035F9A37996
:106E1000206083F00203A371A079C0F3C00038BDE5
:106E200000F02AF92368C01AA3889842F4D3A37902
:106E300003F00103AB42EFD000F01EF9A37920600C
:106E400083F0010343F00803E5E7807900F00900CF
:106E5000A0F1080358425841704700F0B9BB00F058
:106E60000BB970477047704703065ABF024B53F87F
:106E700020000020704700BFEC9B0B0003065ABFA8
:106E8000024B53F820000020704700BFEC9D0B0020
:106E900010B5064B03600446006D08B100F0C4F85D
:106EA0002046FFF707FB204610BD00BFF49F0B00F4
:106EB00010B50446FFF7ECFF20467021FDF717FFE1
:106EC000204610BD30B585B004460D4601F092FD58
:106ED000104A1149CDE901214FF0FF3280210346CC
:106EE000009220462022FFF75DFB0C4B236000231D
:106EF000C4E9143504F15800FFF756FF04F16000AF
:106F0000FFF752FF04F16800FFF74EFF204605B07F
:106F100030BD00BF801A0600A0860100F49F0B0060
:106F200013B50446503000F077F8636DD90705D5E6
:106F30000222042104F15800FFF74AFF636D9A070B
:106F400005D50022032104F16000FFF741FF636DC6
:106F50005B0705D50222114604F16800FFF738FFF0
:106F6000012300933C2202212046FFF723FC02B0BC
:106F700010BD10B5436DD907044602D55830FFF750
:106F800034FF636D9A0703D504F16000FFF72DFF0E
:106F9000636D5B0705D504F16800BDE81040FFF79D
:106FA00024BF10BD436D024613F0010003D002F16F
:106FB0005800FFF74ABF704708B5024B1B68DB68F3
:106FC000019308BD4802030008B5024B1B68DB694A
:106FD000019308BD4802030008B5024B1B681B6AF9
:106FE000019308BD4802030008B5024B1B685B6AA9
:106FF000019308BD4802030008B5024B1B689B6A59
:10700000019308BD4802030008B5024B1B68DB6A08
:10701000019308BD4802030008B5024B1B681B6BB7
:10702000019308BD4802030008B5024B1B685B6B67
:10703000019308BD4802030008B5024B1B685B6C56
:10704000019308BD4802030008B5024B1B681B6F83
:10705000019308BD4802030008B5024B1B685B683A
:10706000019308BD1802030008B5024B1B68DB68DA
:10707000019308BD1802030008B5024B1B685B6949
:10708000019308BD1802030008B5024B1B685B683A
:10709000019308BD2C02030008B5024B1B689B68D6
:1070A000019308BD2C02030008B5024B1B68DB6886
:1070B000019308BD2C02030008B5024B1B681B6935
:1070C000019308BD2C02030008B5024B1B685B69E5
:1070D000019308BD2C02030008B5024B1B689B6A94
:1070E000019308BD2C02030008B5024B1B681B6B03
:1070F000019308BD2C02030008B5024B1B689B6F6F
:10710000019308BD2C02030008B5024B1B681B68E5
:10711000019308BD2802030008B5024B1B68DB6819
:10712000019308BD2802030008B5024B1B689B6948
:10713000019308BD2802030008B5024B1B68DB69F8
:10714000019308BD2802030008B5024B1B681B6AA7
:10715000019308BD2802030008B5024B1B685B6A57
:10716000019308BD2802030008B5024B1B689B6A07
:10717000019308BD2802030008B5024B1B68DB6AB7
:10718000019308BD2802030008B5024B1B681B6B66
:10719000019308BD2802030008B5024B1B685B6B16
:1071A000019308BD2802030008B5024B1B681B6C45
:1071B000019308BD2802030008B5024B1B685B69F8
:1071C000019308BD6C02030008B5024B1B685B69A4
:1071D000019308BD6402030008B5024B1B681B6ADB
:1071E000019308BD6402030008B5024B1B685B6A8B
:1071F000019308BD6402030008B5024B1B689B6A3B
:10720000019308BD6402030008B5024B1B689B682C
:10721000019308BD6802030008B5024B1B68DB68D8
:10722000019308BD6802030008B5024B1B689B6907
:10723000019308BD3802030008B5024B1B68DB69E7
:10724000019308BD3802030008B5024B1B681B6A96
:10725000019308BD3802030008B5024B1B689B6A06
:10726000019308BD3802030008B5024B1B681B6B75
:10727000019308BD3802030008B5024B1B689B6BE5
:10728000019308BD3802030008B5024B1B681B6858
:10729000019308BD3002030008B5024B1B685B690F
:1072A000019308BD3002030008B5024B1B68DB697F
:1072B000019308BD3002030008B5024B1B681B6A2E
:1072C000019308BD3002030008B5024B1B685B6ADE
:1072D000019308BD3002030008B5024B1B68DB6B4D
:1072E000019308BD3002030008B5024B1B681B6CFC
:1072F000019308BD3002030008B5024B1B685B6CAC
:10730000019308BD3002030008B5024B1B68DB681F
:10731000019308BD3C02030008B5024B1B681B69C2
:10732000019308BD3C02030008B5024B1B685B6972
:10733000019308BD3C02030008B5024B1B689B6922
:10734000019308BD3C02030008B5024B1B68DB69D2
:10735000019308BD3C02030008B5024B1B681B6A81
:10736000019308BD3C02030008B5024B1B689B6AF1
:10737000019308BD3C02030008B5024B1B681B6C5F
:10738000019308BD3C02030008B5024B1B681B6853
:10739000019308BD4C02030008B5024B1B681B6932
:1073A000019308BD4C02030008B5024B1B685B69E2
:1073B000019308BD4C02030008B5024B1B689B6992
:1073C000019308BD4C02030008B5024B1B68DB6942
:1073D000019308BD4C02030008B5024B1B681B6AF1
:1073E000019308BD4C02030008B5024B1B685B6BA0
:1073F000019308BD6002030008B5024B1B681B6DBA
:10740000019308BD6002030008B5024B1B685B686E
:10741000019308BD2002030008B5024B1B685B699D
:10742000019308BD2002030008B5024B1B68DB6A0C
:10743000019308BD2002030008B5034B1B68D3F875
:107440008830019308BD00002002030008B5034BFB
:107450001B68D3F89430019308BD0000200203009C
:1074600008B5024B1B689B68019308BD44020300EA
:1074700008B5024B1B68DB6B019308BD4402030097
:1074800008B5024B1B685B68019308BD400203000E
:1074900008B5024B1B689B68019308BD40020300BE
:1074A00008B5024B1B68DB68019308BD400203006E
:1074B00008B5024B1B681B69019308BD400203001D
:1074C00008B5024B1B685B69019308BD40020300CD
:1074D00008B5024B1B689B69019308BD400203007D
:1074E00008B5024B1B68DB69019308BD400203002D
:1074F00008B5024B1B681B6A019308BD40020300DC
:1075000008B5024B1B681B6B019308BD40020300CA
:1075100008B5024B1B685B6B019308BD400203007A
:1075200008B5024B1B681B6C019308BD40020300A9
:1075300008B5024B1B685B6C019308BD4002030059
:1075400008B5024B1B681B68019308BD1C020300B1
:1075500008B5024B1B685B68019308BD1C02030061
:1075600008B5024B1B689B68019308BD1C02030011
:1075700008B5024B1B68DB69019308BD1C020300C0
:1075800008B5024B1B685B6A019308BD1C0203002F
:1075900008B5024B1B68DB6A019308BD1C0203009F
:1075A00008B5024B1B68DB6B019308BD1C0203008E
:1075B00008B5024B1B681B6C019308BD1C0203003D
:1075C00008B5024B1B685B6C019308BD1C020300ED
:1075D0000021FFF721BF0000024800230360FFF7EE
:1075E0002BBD00BFC8E60320002240681146FFF70C
:1075F0007FBF002240681146FFF78ABF4068002223
:10760000FFF77EBF4068002281F00101FFF768BFED
:10761000002340681A461946FFF75ABF0023406806
:107620001A461946FFF74CBF002240681146FFF783
:107630003FBF002240681146FFF72ABF4068002282
:107640000221FFF72DBF002340681A46FFF718BF3D
:10765000024B03225A60024A1A607047CCE60320AC
:1076600054A00B007047F8B5064615460C468F1817
:10767000BC4206D0336814F8011B9B68304698471B
:10768000F6E72846F8BD007C0022FFF75DBD007CD0
:107690000021FFF761BD007C0021FFF765BD007C84
:1076A0000021FFF769BD007C0021FFF76DBD10B51B
:1076B00014210446FDF71BFB204610BD38B50446D7
:1076C00015464FF47A730022C4E90123094B217453
:1076D000084623602946FFF767FDBF3008D16B6974
:1076E000DB0705D56868FFF733FFE868FFF730FF71
:1076F000204638BD90A00B00007C0022FFF704BD9F
:107700000023007C1A461946FFF706BD007C0022C4
:10771000FFF70ABDC9B2FFF7F9BF007C0022FFF7EF
:107720000BBD0121FFF7F9BF704710B518210446C2
:10773000FDF7DDFA204610BDF0B5037D062B8DB0B8
:107740000E4600F104074FF0000412D000F10805C6
:1077500015F8011D0A22304600F073F9AF420444C7
:1077600019D0002CF4D02E21304600F051F90444F9
:10777000EEE72F236A4639460A208DF80040FFF7CE
:1077800023FD6846FDF76CFA33680246DB686946FC
:1077900030469847044620460DB0F0BD10B5054B65
:1077A0000446112240F8043B002101F0BDFA2046B6
:1077B00010BD00BFB8A00B000346074A10B543F840
:1077C000042B01F1100251F8044B43F8044B914291
:1077D000F9D10A781A7010BDB8A00B00037D042BF4
:1077E00004D14068003818BF01207047062B07D12C
:1077F00043683BB983682BB9C3681BB90069F1E7DB
:10780000002070470120704710B59DF8084044EAF9
:10781000032343EA024242EA016104234160037503
:1078200010BD000007B5064B0360CB7800938B7842
:107830004A780978FFF7E8FF03B05DF804FB00BF62
:10784000B8A00B00014B024A1A607047D4E603202F
:10785000C4A00B00002340681A46FFF711BE406821
:1078600000220221FFF71CBE002240681146FFF7EC
:107870000FBE002240681146FFF71ABE0023406881
:107880001A461946FFF71CBE002340681A461946DF
:10789000FFF71EBE40680021FFF742BE406800218E
:1078A000FFF746BE4068002281F00101FFF718BED5
:1078B00040680022FFF724BE002240681146FFF70F
:1078C00027BE002240681146FFF712BE2DE9F043A3
:1078D00095B014460D460746FFF760FF00211C22B5
:1078E0000DA8009101F020FA40230C9320466B462E
:1078F0000CAA0021FFF790FC044600284BD1024659
:1079000001216868FFF7D4FD02218046224668689D
:10791000FFF7CEFD009E81462146002E3BD0002978
:1079200039D17368022B03D00A2B11D0F669F4E722
:10793000B8F1000FFAD0716906A8043107ADFFF75E
:1079400071FF0FCD3C1D0FC42B6823704146EDE73E
:10795000B9F1000FEAD07469102201A801F0E4F92E
:1079600006238DF8143001AD04F1080318341868AB
:1079700059682A4603C20833A3421546F7D101A924
:1079800006A807ADFFF718FF0FCD3C1D0FC42B68ED
:1079900023704946CAE70098FFF736FC384615B011
:1079A000BDE8F083024B034A1A6000225A60704718
:1079B000D8E60320D0A00B00F8B506460D468F1878
:1079C0000024BD420CD0336815F8011B9B6830467B
:1079D0009847031E01DB1C44F3E7002C08BF1C463C
:1079E0002046F8BD13B50446084659B10191FDF78C
:1079F00037F923680199DB680246204602B0BDE8EA
:107A00001040184702B010BD08B5FFF7EBFF08BDE6
:107A100003689B68184738B50D210546FFF7F8FF46
:107A20000A2104462846FFF7F3FF204438BD38B545
:107A30000546FFF7D7FF04462846FFF7ECFF204432
:107A400038BD30B58BB00023012A8DF8243098BFA3
:107A50000A2209AC0D46B1FBF2F101FB125303F00F
:107A6000FF03092B94BF30333733DBB2AA4204F84B
:107A7000013DEFD92146FFF7B5FF0BB030BD2DE931
:107A8000F04186B000AF05460E46381D142114465D
:107A90003B60FFF775FD13280ED8391D2846FFF708
:107AA000A1FF04461EB12846FFF7B5FF0444204657
:107AB0001837BD46BDE8F08100F1080323F0070345
:107AC000E846ADEB030D2246411C3B686846FFF7D4
:107AD00057FD69462846FFF785FF0446C546E1E79E
:107AE000014B00229A607047E0E603200021FFF777
:107AF00003BC0021FFF7F8BB10B50446084621700F
:107B0000FFF7D2FB00236360204610BD13B5044687
:107B10000078FFF7EEFF58B9207801904FF6FF711B
:107B2000FFF7B2FB019802B0BDE81040FFF7DEBFDF
:107B300002B010BD0078FFF7D9BF0000400830B593
:107B40001860002418688842E5B206D90134082C70
:107B500002D040081860F5E70725024B5B5D137003
:107B600030BD00BF04A10B002DE9F04306468FB0E5
:107B700000780C46FFF7BDFF00281BDB3578142288
:107B8000002109A801F0D0F80B23002209A92846FA
:107B9000ADF82430FFF798FB9DF82D3013B19DF818
:107BA0002C5055B10027B946B846012523795DB15F
:107BB000C3B100200FB0BDE8F083DDF830809DF840
:107BC00034909DF83570F1E7002B35D1A36843451B
:107BD00008D18DF820908DF82170BDF82020A38960
:107BE0009A42E6D00023A1688DF80F300A9804ABC2
:107BF0000DF10F02FFF7A2FF217985B989B9A368BA
:107C000043450ED38DF820908DF82170BDF82020CB
:107C1000A3899A4205D1049B434502D1C9E70029B3
:107C2000F9D100230193637B00939DF80F20237B00
:107C30003078FFF751FBBCE7CDE900552B462A46CB
:107C40000121F5E708B50078FFF726FBC0B208BDB3
:107C500010B50446FFF710FAE060236820465B6920
:107C60009847002808DAFFF707FAE368C01AA36804
:107C70009842F2D34FF0FF3010BD2DE9F041074696
:107C80000C468E180D46B542A5EB040807D03846C1
:107C9000FFF7DEFF031E02DB05F8013BF3E740467A
:107CA000BDE8F0812DE9F14F57EC106B80460C4692
:107CB00010EE100A002200233946FCF7DFFD28B140
:107CC00007F100431F462D2304F8013B00234FF02A
:107CD00001090A22D9B2884503D902FB09F9013307
:107CE000F8E74846FCF7EEFA32463B46FCF754FB11
:107CF00006460F46FCF722FE8A4605468B46FCF7F1
:107D000015FB02460B4630463946FCF78DF9144BFD
:107D10000022FCF7C7FD10B101354AF1000B4A46BD
:107D20002846D3175946FCF7F1FD01231546214695
:107D30000A2200F0CAFCB8F1000F0ED02046FCF772
:107D40008FFF2E23211823540A224346013128464F
:107D500001B0BDE8F04F00F0B8BC01B0BDE8F08F55
:107D60000000E03F10B504460068FFF7F1FB204635
:107D700010BD10B50446006808B1FFF7E9FB002309
:107D8000C4E90133236010BD38B504460D460068D0
:107D90000131FFF7E5FB10B1C4E90005012038BD52
:107DA00010B50368044623B143688B4201D3012018
:107DB00010BD2046FFF7E8FF0028F9D0A368002B8C
:107DC000F5D122681370F2E737B50D4611460192DE
:107DD0000446FFF7E5FF019A28B92046FFF7C9FFDF
:107DE000204603B030BDA2602946206800F08EFF17
:107DF0002268A3680021D154F2E7002313B5C0E93B
:107E0000003304468360037341B108460191FCF7D7
:107E100027FF019902462046FFF7D6FF204602B011
:107E200010BD13B5044659B108460191FCF718FF7F
:107E3000019902462046FFF7C7FF204602B010BD59
:107E4000FFF797FFF9E710B504468AB0002308460C
:107E5000C4E90033A360237301A9C0B2FFF722FF76
:107E600001A92046FFF7DDFF20460AB010BD000043
:107E7000054B02221A60054B054A9A600020C3E9AF
:107E80000000FFF7C1BA00BFFCE60320F0E60320C4
:107E90000000FFFF13B503688DF80710DC6B0122AB
:107EA0004FF0FF330DF10701A04702B010BD10B431
:107EB0000368DC6B4FF0FF33A4465DF8044B60476A
:107EC00013B5134602688DF80710D46B0DF1070146
:107ED0000122A04702B010BD10B54369B3F8862057
:107EE000B3F884309A42044608D06369B3F884201A
:107EF000511CA3F884101344187910BD03681B6942
:107F000098470028F1D14FF0FF30F6E770474369FA
:107F10001868C043C00F704770470000064B994275
:107F200010B500F10C0405D0084600F0CFFD002884
:107F300008BF0024204610BD44A00B0010B5AC21A2
:107F40000446FCF7D4FE204610BDAC21FCF7CFBEA2
:107F50002DE9F0414FF0000886B01C46C0F80480BF
:107F600005460E4617464146102202A800F0DCFEE8
:107F7000631C09D04FF47A73B4FBF3F203FB124491
:107F8000CDE902285C4304946869102300930068DB
:107F900002AB41F2050240F6FF71FFF745F90028F8
:107FA00007DAFFF7FDFA03686B60002006B0BDE852
:107FB000F0816869002300683A463146FFF754F9BA
:107FC000031EEEDB1846F1E738B584690A4B0360FF
:107FD00005467CB16368013B63605BB9236820465A
:107FE0009B689847A368013BA3601BB923682046A0
:107FF000DB689847284638BD48A10B0010B50446F9
:10800000FFF7E2FF20461C21FCF771FE204610BD61
:1080100030B587B0044601AD6846FFF703FC0FCDCD
:1080200004340FC42B68237007B030BD70B54D69A0
:10803000054B04468C3544F8043B06460FCD0FC46F
:108040002B682370304670BDB8A00B002DE9F043BB
:108050009846036893B00D460024DB6A064617462F
:10806000984728466B46224621460094FFF7D4F8ED
:108070000546002863D1009B002B4BD05B69002B89
:1080800048D006A8FFF78AFB009B5C696378022B47
:1080900004D1211D06A8FFF7BBFF26E00A2B24D13F
:1080A0001122294601A800F03FFEA368002B38D01A
:1080B00004F108030DF1040C18341868596862467D
:1080C00003C20833A3429446F7D1062301A90CA8A2
:1080D0008DF81430FFF770FB0DF1340CBCE80F0085
:1080E00007AC0FC4DCF80030237006A8FFF776FB5E
:1080F00080B1336807ADD3F82090124B0C930FCDAD
:108100000DAC0FC42B6823703A4643460CA9304689
:10811000C84705460098FFF777F8284613B0BDE832
:10812000F083E368002BC3D14FF6FF70D4F81090B2
:10813000FFF752F88145BBD104F11401AAE72546A7
:10814000E8E700BFB8A00B0038B543691A68002AF9
:10815000054610DAB3F88620B3F884309A420AD183
:1081600003681B699847044628B92B682846DB6AD0
:108170009847204638BD0120FCE710B54369B3F8A5
:108180008620B3F884309A42044605D06369B3F878
:1081900084201344187910BD03681B699847002890
:1081A000F4D14FF0FF30F6E7F8B543691746B3F85E
:1081B0008620B3F884309A4205460E4616D0696987
:1081C000B1F88430B1F88640E41ABC4228BF3C467E
:1081D000043322461944304600F098FD6A69B2F82B
:1081E00084302344A2F884302046F8BD03681B691C
:1081F00098470028E3D14FF0FF34F5E742690023A8
:10820000A2F884304269A2F8863070472DE9F04127
:108210001F4603680C46DB6A8AB005461646984737
:10822000237DD5F81480042B0CBF02200A200622DF
:108230000121FFF721F8C8F800006B691B68002BCB
:1082400008DA2B682846DB6A0024984720460AB0E3
:10825000BDE8F0812846FFF7D1FFB7B1002303A99D
:10826000F8B20393ADF81030FEF7A6FF0028E8D16E
:10827000686906230093006803AB41F20B0240F6E5
:10828000FF71FEF7D1FF0028DBD11C22002103A8DB
:1082900000F04AFD237D042B1DD14FF407733046B7
:1082A000ADF80C30FEF7A8FFADF80E006068FEF7E1
:1082B00093FF04906B691C22186803A9FEF7C4FFA2
:1082C0000028BED104340FCC6D698C350FC52368EE
:1082D0002B700124BAE740F61C233046ADF80C3071
:1082E000FEF78AFF05AEADF80E00231D04F114075A
:1082F00018685968324603C20833BB421646F7D1A4
:10830000D8E7000030B54269B2F886308BB0044639
:108310002BB1B2F884209A4201D1FFF76FFF616957
:108320000868002818DBB1F886507F2D14D8043176
:108330000823C5F180022944FEF78EFF002813DDD3
:108340006369B3F886200AB9A3F884206369B3F897
:1083500086201044A3F886006369B3F88600B3F85A
:108360008430C01A0BB030BDFFF71AF903680B2B2D
:10837000F2D0FFF715F903680B2BEDD02023002571
:10838000CDE90235FFF70CF903680193084B094961
:10839000009302AA2B463220FFF72EF86369186873
:1083A000FEF74AFF63694FF0FF321A60D4E700BF5F
:1083B00013A10B000CA10B0010B54369044618680B
:1083C000002801DBFEF738FF63694FF0FF321A60C7
:1083D0006069112200218C3000F0A6FC2046BDE827
:1083E0001040FFF70BBF10B5002304460160C0F832
:1083F00084308830FFF7D2F9204610BD73B50023D2
:108400004FF47A72C0E901320E4A0361026043619F
:108410000446AC200191FCF766FC051E05F10C0634
:1084200008D00123C5E90133074B01992B60304681
:10843000FFF7D9FF2046C4E90565FFF7DFFE02B06C
:1084400070BD00BF48A10B002CA10B0010B54FF070
:10845000FF310446FFF7D2FF204610BD10B5044699
:108460000068002801DBFEF7E7FE204610BD0C3057
:10847000FFF7F4BF024B1A68024B1A60704700BF47
:1084800030E5032000E7032070474174704708B5CA
:10849000007CFEF769FF20EAE07008BD08B5007CAB
:1084A000FEF73AFF20EAE07008BD08B5007CFEF751
:1084B00043FF40EAE07008BD08B5007CFEF734FFDA
:1084C00040EAE07008BD007CFEF73EBF37B5457C52
:1084D00004462DB1207C03B0BDE83040FEF714BF48
:1084E000007C0191FEF740FF00280199F2DC28464C
:1084F00003B030BD10B514210446FCF7F8FB20464C
:1085000010BD000010B54FF47A73044608461146BA
:108510000022C4E90123044B236001232074637407
:10852000FEF72AFF204610BDB0A10B004174704732
:108530007047704708B50021007CFEF73DFF40EA18
:10854000E07008BD08B50121007CFEF735FF40EA68
:10855000E07008BD08B5007CFEF726FF20EAE07059
:1085600008BD08B5007CFEF717FF20EAE07008BDE3
:1085700013B50446007C0191FEF716FF002801990F
:1085800001DC607C20B1207CFEF71EFF20EAE07059
:1085900002B010BD007CFEF71FBF10B514210446C9
:1085A000FCF7A5FB204610BD10B54FF47A730446C6
:1085B00008460021C4E90113044B23600123207401
:1085C00063741146FEF7E0FE204610BDE0A10B00EB
:1085D00010B514220446002100F0A6FB204610BD71
:1085E00010B50F4C88B003A8FFF7F2FF2178BFF356
:1085F0005B8F11F001010FD120460191FCF786FB42
:10860000019948B103AA0748FFF7CEFF2046FCF7BF
:1086100082FB054800F06CFB024808B010BD00BFAB
:1086200004E7032008E7032031850B00002240689F
:108630001146FEF73DBF002240681146FEF758BFC5
:10864000002240681146FEF763BF40680022FEF733
:1086500057BF4068002281F00101FEF741BF0023AF
:1086600040681A461946FEF733BF002340681A4691
:108670001946FEF725BF002240681146FEF708BFE5
:10868000406800220221FEF70BBF002340681A4613
:10869000FEF7F6BE024B04225A60024A1A60704787
:1086A0001CE7032010A20B0010B50446FCF7D8FA13
:1086B000013823182046834206D90278197800F839
:1086C000011B03F80129F6E710BD70B50C46911E99
:1086D00022291DD8254630B9234430229D4210D28C
:1086E00005F8012BFAE7B0FBF2F602FB1600C1B267
:1086F000092894BF30315731C9B205F8011B304603
:10870000E9E7002320462B70FFF7CEFF204670BD1F
:108710000020FCE7014B1860704700BF34E50320E0
:1087200008B50B4B43B1FFF75BFF03681B69984724
:10873000002801DDAFF30080064B43B100F09AF949
:1087400003681B699847002801DDAFF3008008BD6E
:10875000000000000000000008B5FFF7E1FFFEF791
:108760008BFC014B186008BD2CE703200548064A26
:10877000064908B5121A00F0C9FA054B054A1A60F5
:1087800008BD00BF00F4032004F4032068A50B001B
:1087900000F403201E1C279A07B5002300931A46F5
:1087A0006FF07701FEF752FE03B05DF804FB0000A6
:1087B00007B543880A2B08D0502B0BD1094B1B68F7
:1087C0004BB103B05DF804EB1847FFF7E5FF03B0CA
:1087D0005DF804FB002300931A466FF07701FEF763
:1087E00035FEF4E728E7032010B512480021FEF714
:1087F000E7FE114B1A68114B9A42114B0CBF012234
:1088000000221A7001D0FFF7B1FFFEF725FC0446E5
:1088100000F092FA0B4B13B12046AFF30080002119
:108820000848FEF725FEBDE8104007480021FEF786
:1088300003BE00BF15870B0000F403201E1C279AFF
:1088400024E7032000000000B1870B00232813B5A4
:1088500002D9002002B010BDA0F10B03022B1AD8E0
:10886000174C2178BFF35B8F11F001010BD120462B
:108870000191FCF74BFA019928B11248FFF73CF936
:108880002046FCF748FA0F4B1878FEF715FD002834
:10889000DFD10120DEE7012809D800F0ABF8002184
:1088A000007CFEF779FC80F00100C0B2D2E7093805
:1088B0000128EED800F0DEF8007CFEF74DFDF2E76F
:1088C000BCE60320C0E60320232838B504460D4645
:1088D0000AD8FF2908D0FFF7B9FF28B1294620465A
:1088E000BDE83840FEF7D8BB38BD38B504460D4664
:1088F000FEF7DAFBFF2810D0062804D84D2323FA10
:1089000000F0C30709D42046FFF7A0FF28B129468D
:108910002046BDE83840FEF7CFBB38BD10B5044651
:10892000FEF7C2FB031FDBB2012B08D92046FFF77D
:108930008DFF20B12046BDE81040FEF7C5BB0020EA
:1089400010BD0D2810B504469CBF0E34A4B22046BD
:10895000FFF77CFF50B103212046FEF795FB03286B
:1089600004D12046BDE81040FEF7BEBB002010BD7C
:1089700038B504460D46FFF769FFF0B104212046E3
:10898000FEF782FB042805D1A9B22046BDE8384095
:10899000FEF7A2BB02212046FEF776FB02280CD18F
:1089A0002046FEF781FB012801D0042805D1294685
:1089B0002046BDE83840FEF79FBB38BD7047000039
:1089C00038B50A4B0360012304464361084920205F
:1089D00000F074F8202560600549A560284600F085
:1089E0006DF8C4E90305204638BD00BF180001003A
:1089F00044A20B0030B50E4D2978BFF35B8F11F008
:108A0000010487B011D12846FCF780F968B16846A7
:108A1000FFF7D6FF6A4621460648FEF74FFE284676
:108A2000FCF779F9044800F063F9024807B030BD5B
:108A300030E7032034E70320BD890B0070470000B6
:108A400038B5044614252A46002100F06DF925802A
:108A50004025074925812846258200F02FF8044942
:108A60006060284600F02AF8E060204638BD00BF6C
:108A700044A20B0030B50E4D2978BFF35B8F11F087
:108A8000010487B011D12846FCF740F968B101A86C
:108A9000FFF7D6FF01AA21460648FFF733FD284617
:108AA000FCF739F9044800F023F9024807B030BD5B
:108AB00048E703204CE703203D8A0B00FCF715B97B
:108AC00008B5FEF765FD08B5FEF762FD014900F047
:108AD000F9B800BF60A20B007FB500241023CDE9D8
:108AE0000234036815469E6912686B46CDE900445E
:108AF000B0479DF8043003F00603062B03BF009B2C
:108B00002B600120204604B070BD0098904214BF35
:108B1000012006207047000010B5034B0360044697
:108B200000F0CDF8204610BDA0A20B0010B5044601
:108B3000FFF7F2FF20460821FCF7D9F8204610BDC8
:108B40002DE9F0411F46DDE90834DDF8188098452D
:108B50000646154607D1079900F0B4F818B16571BB
:108B60000020BDE8F0813946304600F0ABF800281F
:108B7000F6D00123C4F800802571A371F0E738B561
:108B800015461C4600F09EF820B10823E36006233A
:108B90002560237138BD73B505460C4601921E460B
:108BA00000F090F850B9032E08D82368019A5B6949
:108BB0002946204602B0BDE87040184702B070BD9B
:108BC00010B5034B03600446FFF7A6FF204610BD17
:108BD00000A30B0010B50446FFF7F2FF20460C215E
:108BE000FCF785F8204610BDF7B5089F974205466B
:108BF0000E4614460AD0A86802680897156A3146DE
:108C00002246AC4603B0BDE8F040604719460193E8
:108C100000F058F8019B0028EDD0062003B0F0BD0D
:108C20002DE9F14F0D461946DDE90A4BDDE90CA6A9
:108C300081461746984600F045F890B1002D346003
:108C4000377109DB61198A450CBF06210121B17119
:108C5000002001B0BDE8F08F0235F9D10123B371D6
:108C6000F6E7544506D15946484600F02BF808B1BE
:108C70007771EDE7D9F808000368CDE90CA6CDE9D6
:108C80000A4BDC693A4643462946A44601B0BDE892
:108C9000F04F60472DE9F04107460C4615461E4649
:108CA000FFF76DFF48B9B86803689F692A463346E5
:108CB0002146BC46BDE8F0416047BDE8F081704701
:108CC00000207047814208B50ED0406803782A2BF7
:108CD0000CD049680B782A2B08BF0131FBF7B6FF8F
:108CE000B0FA80F0400908BD0120FCE70020FAE757
:108CF000002301461A46184600F0ECB80A2200216B
:108D000000F0DEB80A22002100F0DAB80A449142ED
:108D100000F1FF3300D1704710B511F8014B03F893
:108D2000014F9142F9D110BD02440346934200D154
:108D3000704703F8011BF9E738B5104B1D68AB6BA2
:108D40000446B3B91820FEF7FBFB0246A86320B91E
:108D50000B4B0C484221FEF72BFC0B490B4BC0E997
:108D600000130B4B83600B23838100210120C2E998
:108D70000401AB6B00221C615A6138BD34E503204D
:108D800039A30B0050A30B000E33CDAB34126DE6AC
:108D9000ECDE050010B50139034632B111F8014F80
:108DA00003F8014B013A002CF7D11A4400219342F9
:108DB00000D110BD03F8011BF9E70000012B2DE9DC
:108DC000F04701D0242B06D9FEF7EAFB16230360F7
:108DD0000020BDE8F087DFF8E4C00D462E4615F808
:108DE000014B14F80C7017F00807F7D12D2C32D175
:108DF0002C780127B51C002B5BD0102B09D1302C0F
:108E000007D12C7804F0DF04582C4DD16C78102356
:108E1000023507F1004808F1FF384FF0000CB8FBAD
:108E2000F3F9664603FB198AA4F1300EBEF1090F6F
:108E300016D87446A34224DDBCF1000F1EDBB145F9
:108E40001CD301D1A24519DB06FB03464FF0010CF0
:108E500015F8014BE8E72B2C04BF2C78B51CCAE7AA
:108E6000A4F1410EBEF1190F01D8373CE2E7A4F19D
:108E7000610EBEF1190F04D8573CDBE74FF0FF3C01
:108E8000E6E7BCF1000F05DA22230360464642B94B
:108E900030469EE707B17642002AF9D0BCF1000FB8
:108EA00000D0691E1160F3E73024002BB1D10823F4
:108EB000AFE7302CA5D00A23ABE700BFAAA30B0075
:108EC00013460A46014602480068FFF777BF00BF15
:108ED00034E503202DE9F843DFF8B8800646D8F8DA
:108EE00000001F460D46914600F056F8254B1C68C1
:108EF00034B9254C1C60254B13B11B68C4F888306D
:108F000063681F2B07DDD8F8000000F047F84FF02A
:108F1000FF30BDE8F8834EB3D4F8880088B91C4B05
:108F200023B9D8F8000000F038F8F0E74FF4847067
:108F3000FEF706FB0028F4D00023C0E94033C4F854
:108F40008800636840F8239001229A4000EB830177
:108F5000D0F800311343C0F80031022EC1F8807000
:108F600002BFD0F804311343C0F804316368D8F865
:108F700000005A1C0233626044F8235000F00EF8DF
:108F80000020C6E7ECE7032060E7032000000000B4
:108F900041750B0098E5032070477047704700004B
:108FA000714C0B00AD4C0B00D54C0B00D94C0B0099
:108FB0000000000043616C6C206F6E20707572655C
:108FC000207669727475616C00256900256C6900F2
:108FD000766563746F723A3A5F4D5F7265616C6C6F
:108FE0006F635F696E7365727400696E006F75748C
:108FF0000070776D00647700617700746D706C00AD
:10900000544D504C32625968694E6B526500767708
:109010000025322E37660054656D70657261747577
:10902000726520416C657274210062415F636C69F6
:10903000636B65640053656E74204E6F7469666976
:10904000636174696F6E0046616872656E68656918
:10905000743A0043656C636975733A00793135433E
:10906000314E4E4A74564A3034475A6F49416F491F
:109070004D314541755F6C694650696C00626C7991
:109080006E6B2E636C6F75640000000000000000C2
:1090900000000000854E0B00D94E0B00D74F0B008F
:1090A000626C6E6B696E660076657200312E312ED1
:1090B0003000682D62656174003435006275666643
:1090C0002D696E0031303234006465760050617273
:1090D0007469636C65204172676F6E0066772D74EA
:1090E00079706500544D504C32625968694E6B522C
:1090F00065006275696C64004A756E2033302032F9
:109100003032332031333A31343A34310000000008
:10911000000000003E5B4F5B3E3E6B4F6B3E1C3ED3
:109120007C3E1C183C7E3C181C577D571C1C5E7FE7
:109130005E1C00183C1800FFE7C3E7FF0018241866
:1091400000FFE7DBE7FF30483A060E26297929269B
:10915000407F050507407F05253F5A3CE73C5A7F85
:109160003E1C1C08081C1C3E7F14227F22145F5FDB
:10917000005F5F06097F017F006689956A60606015
:10918000606094A2FFA29408047E040810207E2050
:109190001008082A1C08081C2A08081E10101010A5
:1091A0000C1E0C1E0C30383E3830060E3E0E0600EB
:1091B0000000000000005F00000007000700147FAF
:1091C000147F14242A7F2A12231308646236495616
:1091D00020500008070300001C2241000041221C0F
:1091E000002A1C7F1C2A08083E08080080703000F6
:1091F0000808080808000060600020100804023E0B
:109200005149453E00427F4000724949494621414B
:10921000494D331814127F1027454545393C4A49BA
:1092200049314121110907364949493646494929F9
:109230001E00001400000040340000000814224109
:109240001414141414004122140802015909063E92
:10925000415D594E7C1211127C7F494949363E418D
:109260004141227F4141413E7F494949417F0909AE
:1092700009013E414151737F0808087F00417F4149
:10928000002040413F017F081422417F4040404080
:109290007F021C027F7F0408107F3E4141413E7FD8
:1092A000090909063E4151215E7F091929462649CF
:1092B00049493203017F01033F4040403F1F2040A6
:1092C000201F3F4038403F631408146303047804B0
:1092D000036159494D43007F414141020408102078
:1092E000004141417F0402010204404040404000EF
:1092F0000307080020545478407F284444383844F9
:10930000444428384444287F385454541800087E74
:10931000090218A4A49C787F0804047800447D40C6
:10932000002040403D007F1028440000417F400065
:109330007C047804787C080404783844444438FC7D
:109340001824241818242418FC7C08040408485401
:1093500054542404043F44243C4040207C1C2040BE
:10936000201C3C4030403C44281028444C909090B5
:109370007C4464544C4400083641000000770000EF
:10938000004136080002010204023C2623263C1E4E
:10939000A1A161123A4040207A38545455592155C0
:1093A00055794122545478422155547840205455DF
:1093B00079400C1E5272123955555559395454542E
:1093C0005939555454580000457C410002457D42AE
:1093D0000001457C407D1211127DF0282528F07C8B
:1093E000545545002054547C547C0A097F49324925
:1093F0004949323A4444443A324A4848303A414171
:10940000217A3A42402078009DA0A07D3D42424210
:109410003D3D4040403D3C24FF2424487E49436676
:109420002B2FFC2F2BFF0929F620C0887E09032053
:10943000545479410000447D413048484A32384014
:1094400040227A007A0A0A727D0D19317D26292977
:109450002F28262929292630484D40203808080879
:109460000808080808382F10C8ACBA2F102834FA9A
:1094700000007B000008142A142222142A14085524
:1094800000550055AA55AA55AAFF55FF55FF0000E3
:1094900000FF00101010FF00141414FF001010FF44
:1094A00000FF1010F010F0141414FC001414F70056
:1094B000FF0000FF00FF1414F404FC141417101F25
:1094C00010101F101F1414141F00101010F00000B3
:1094D00000001F101010101F10101010F0100000CE
:1094E00000FF101010101010101010FF10000000DE
:1094F000FF140000FF00FF00001F10170000FC0415
:10950000F414141710171414F404F40000FF00F7F7
:1095100014141414141414F700F71414141714105A
:10952000101F101F141414F4141010F010F0000089
:109530001F101F0000001F14000000FC140000F0AA
:1095400010F01010FF10FF141414FF141010101F4F
:1095500000000000F010FFFFFFFFFFF0F0F0F0F060
:10956000FFFFFF0000000000FFFF0F0F0F0F0F387D
:1095700044443844FC4A4A4A347E02020606027ECB
:10958000027E0263554941633844443C04407E20D6
:109590001E2006027E020299A5E7A5991C2A492AE7
:1095A0001C4C7201724C304A4D4D30304878483076
:1095B000BC625A463D3E494949007E0101017E2A6E
:1095C0002A2A2A2A44445F444440514A44404044A1
:1095D0004A51400000FF0103E080FF000008086BD3
:1095E0006B083612362436060F090F0600001818CD
:1095F0000000001010003040FF0101001F01011E9B
:1096000000191D1712003C3C3C3C0000000000000B
:10961000000000000000000000000000000000004A
:1096200025630B00B9790B00F54C0B002B5D0B008B
:109630002D5D0B005F5D0B003B5D0B004D5D0B0076
:109640006D5C0B002B5D0B00575F0B00555F0B0033
:10965000775D0B00B55D0B00EF5D0B00355E0B0019
:10966000515E0B00D55E0B0064656661756C7420FD
:10967000004D5342004C5342003C535049536574D3
:1096800074696E67732064656661756C743E003C36
:1096900053504953657474696E677320257325753B
:1096A000202573204D4F444525753E0000000000E5
:1096B0000000000061640B0033640B0035640B0094
:1096C0000000000000018000000000000000000019
:1096D000038000000000000000000007C000000040
:1096E00000000000000007C00000000000000000B3
:1096F000000FC00000000000000000001FE000009C
:10970000000000000000001FE0000000000000005A
:1097100000003FE00000000000000000003FF000FB
:1097200000000000000000007FF0000000000000CA
:10973000001FF87FF0000000000000003FFE7FF0F7
:10974000000000000000003FFF7FF000000000006C
:1097500000001FFFFBE0000000000000000FFFF909
:10976000FFC00000000000000FFFF9FFF80000003C
:1097700000000007FFF1FFFF00000000000003FCF5
:1097800073FFFF80000000000001FE3FFFFF80002C
:109790000000000000FF1E0FFF000000000000009E
:1097A0007FFE1FFC000000000000003FFFFFF800EC
:1097B0000000000000000FDFFFE0000000000000DC
:1097C000001F19FFC0000000000000003F3CFF0028
:1097D000000000000000007E7CF800000000000097
:1097E00000007FFE7C0000000000000000FFFFFC86
:1097F0000000000000000000FFFFFE00000000006D
:10980000000000FFFFFE0000000000000001FFEF6D
:10981000FE0000000000000001FFCFFE000000007D
:1098200000000003FF07FE0000000000000003FC32
:1098300007FE0000000000000003F003FE0000002F
:1098400000000000018000FE000000000000000099
:1098500000007E000000000000000000003E00004C
:1098600000000000000000000C00000000000007E5
:109870008000FC000003C0000000078001FC000025
:1098800003C0000000078001FC000003C0000000CE
:10989000078001E00000001E000000078001E000DA
:1098A00000001E007FE3F79FF9FDE7787BDFC0FF34
:1098B000F7FFBFFDFDFF787BDFC0FFF7FFBFFDFDBA
:1098C000FF787BDFC0F0F787BC3DE1FF787BDE00EF
:1098D000F0F787BC3DE1F0787BDE0000F787803D44
:1098E000E1E0787BDE007FF7879FFDE1E0787BDEBB
:1098F00000FFF787BFFDE1E0787BDE00F0F787BC73
:109900003DE1E0787BDE00F0F787BC3DE1E0787B6D
:10991000DE00F0F787BC3DE1E0787BDE00FFF7FF7B
:10992000BFFDE1E07FFBDFC0FFF7FFBFFDE1E07FB0
:10993000FBDFC07CF3F39F3DE1E03E7BCFC0000046
:10994000000000000000000000FFFFFFFFFFFFFF1E
:10995000FFFFFFC0FFFFFFFFFD68DB111A31C0FFF3
:10996000FFFFFFFD2B5AFB6AEFC0FFFFFFFFFD4B20
:109970005B3B1A33C0FFFFFFFFFD6B5BDB6AFDC083
:109980000000600000000000000000000000000077
:1099900000E00000000000000000000000000001E6
:1099A000E00000000000000000000000000001F0E6
:1099B0000000000000000000000000000003F000B4
:1099C00000000000000000000000000007F00000A0
:1099D000000000000000000000000007F800000088
:1099E000000000000000000000000FF8000000036D
:1099F000C0007E000001E0007F0FF800000003C0FF
:109A000000FE000001E000FFEFF800000003C000CE
:109A1000FE000001E000FFFFF800000003C000F0BE
:109A20000000000F007FFE7FC0000003C000F000B8
:109A300000000F003FFE7FF83FF1FBCFFCFEF3BCC0
:109A40003DEFE01FFE7FFF7FFBFFDFFEFEFFBC3D23
:109A5000EFE01FC6FFFF7FFBFFDFFEFEFFBC3DEF19
:109A6000E00FE3C7FE787BC3DE1EF0FFBC3DEF00D6
:109A700007FF87FC787BC3DE1EF0F83C3DEF00015A
:109A8000FFFFF0007BC3C01EF0F03C3DEF0001F390
:109A90007FE03FFBC3CFFEF0F03C3DEF0003E33F30
:109AA000807FFBC3DFFEF0F03C3DEF0007E73C00AA
:109AB000787BC3DE1EF0F03C3DEF0007FFBE007870
:109AC0007BC3DE1EF0F03C3DEF0007FFFE00787B1D
:109AD000C3DE1EF0F03C3DEF000FFFFE007FFBFFFA
